{
  "contractName": "KWHToken",
  "abi": [
    {
      "constant": true,
      "inputs": [],
      "name": "sellPriceEth",
      "outputs": [
        {
          "name": "",
          "type": "uint256"
        }
      ],
      "payable": false,
      "stateMutability": "view",
      "type": "function"
    },
    {
      "constant": true,
      "inputs": [],
      "name": "KWHForGas",
      "outputs": [
        {
          "name": "",
          "type": "uint256"
        }
      ],
      "payable": false,
      "stateMutability": "view",
      "type": "function"
    },
    {
      "constant": true,
      "inputs": [],
      "name": "name",
      "outputs": [
        {
          "name": "",
          "type": "string"
        }
      ],
      "payable": false,
      "stateMutability": "view",
      "type": "function"
    },
    {
      "constant": false,
      "inputs": [
        {
          "name": "_spender",
          "type": "address"
        },
        {
          "name": "_value",
          "type": "uint256"
        }
      ],
      "name": "approve",
      "outputs": [
        {
          "name": "success",
          "type": "bool"
        }
      ],
      "payable": false,
      "stateMutability": "nonpayable",
      "type": "function"
    },
    {
      "constant": true,
      "inputs": [],
      "name": "KWHTokenAddress",
      "outputs": [
        {
          "name": "",
          "type": "address"
        }
      ],
      "payable": false,
      "stateMutability": "view",
      "type": "function"
    },
    {
      "constant": false,
      "inputs": [
        {
          "name": "newGasReserveInWei",
          "type": "uint256"
        }
      ],
      "name": "setGasReserve",
      "outputs": [],
      "payable": false,
      "stateMutability": "nonpayable",
      "type": "function"
    },
    {
      "constant": true,
      "inputs": [],
      "name": "totalSupply",
      "outputs": [
        {
          "name": "",
          "type": "uint256"
        }
      ],
      "payable": false,
      "stateMutability": "view",
      "type": "function"
    },
    {
      "constant": false,
      "inputs": [
        {
          "name": "_from",
          "type": "address"
        },
        {
          "name": "_to",
          "type": "address"
        },
        {
          "name": "_value",
          "type": "uint256"
        }
      ],
      "name": "transferFrom",
      "outputs": [
        {
          "name": "success",
          "type": "bool"
        }
      ],
      "payable": false,
      "stateMutability": "nonpayable",
      "type": "function"
    },
    {
      "constant": true,
      "inputs": [],
      "name": "decimals",
      "outputs": [
        {
          "name": "",
          "type": "uint8"
        }
      ],
      "payable": false,
      "stateMutability": "view",
      "type": "function"
    },
    {
      "constant": true,
      "inputs": [],
      "name": "directTradeAllowed",
      "outputs": [
        {
          "name": "",
          "type": "bool"
        }
      ],
      "payable": false,
      "stateMutability": "view",
      "type": "function"
    },
    {
      "constant": true,
      "inputs": [],
      "name": "gasForKWH",
      "outputs": [
        {
          "name": "",
          "type": "uint256"
        }
      ],
      "payable": false,
      "stateMutability": "view",
      "type": "function"
    },
    {
      "constant": true,
      "inputs": [],
      "name": "minBalanceForAccounts",
      "outputs": [
        {
          "name": "",
          "type": "uint256"
        }
      ],
      "payable": false,
      "stateMutability": "view",
      "type": "function"
    },
    {
      "constant": false,
      "inputs": [
        {
          "name": "newBuyPriceEth",
          "type": "uint256"
        },
        {
          "name": "newSellPriceEth",
          "type": "uint256"
        }
      ],
      "name": "setEtherPrices",
      "outputs": [],
      "payable": false,
      "stateMutability": "nonpayable",
      "type": "function"
    },
    {
      "constant": true,
      "inputs": [],
      "name": "buyPriceEth",
      "outputs": [
        {
          "name": "",
          "type": "uint256"
        }
      ],
      "payable": false,
      "stateMutability": "view",
      "type": "function"
    },
    {
      "constant": false,
      "inputs": [
        {
          "name": "newDCNAmount",
          "type": "uint256"
        }
      ],
      "name": "setKWHForGas",
      "outputs": [],
      "payable": false,
      "stateMutability": "nonpayable",
      "type": "function"
    },
    {
      "constant": false,
      "inputs": [
        {
          "name": "amountOfEth",
          "type": "uint256"
        },
        {
          "name": "kwh",
          "type": "uint256"
        }
      ],
      "name": "refundToOwner",
      "outputs": [],
      "payable": false,
      "stateMutability": "nonpayable",
      "type": "function"
    },
    {
      "constant": false,
      "inputs": [
        {
          "name": "newGasAmountInWei",
          "type": "uint256"
        }
      ],
      "name": "setGasForKWH",
      "outputs": [],
      "payable": false,
      "stateMutability": "nonpayable",
      "type": "function"
    },
    {
      "constant": true,
      "inputs": [
        {
          "name": "_owner",
          "type": "address"
        }
      ],
      "name": "balanceOf",
      "outputs": [
        {
          "name": "balance",
          "type": "uint256"
        }
      ],
      "payable": false,
      "stateMutability": "view",
      "type": "function"
    },
    {
      "constant": false,
      "inputs": [],
      "name": "buyKWHAgainstEther",
      "outputs": [
        {
          "name": "amount",
          "type": "uint256"
        }
      ],
      "payable": true,
      "stateMutability": "payable",
      "type": "function"
    },
    {
      "constant": false,
      "inputs": [],
      "name": "haltDirectTrade",
      "outputs": [],
      "payable": false,
      "stateMutability": "nonpayable",
      "type": "function"
    },
    {
      "constant": true,
      "inputs": [],
      "name": "owner",
      "outputs": [
        {
          "name": "",
          "type": "address"
        }
      ],
      "payable": false,
      "stateMutability": "view",
      "type": "function"
    },
    {
      "constant": true,
      "inputs": [],
      "name": "symbol",
      "outputs": [
        {
          "name": "",
          "type": "string"
        }
      ],
      "payable": false,
      "stateMutability": "view",
      "type": "function"
    },
    {
      "constant": false,
      "inputs": [
        {
          "name": "_to",
          "type": "address"
        },
        {
          "name": "_value",
          "type": "uint256"
        }
      ],
      "name": "transfer",
      "outputs": [
        {
          "name": "success",
          "type": "bool"
        }
      ],
      "payable": false,
      "stateMutability": "nonpayable",
      "type": "function"
    },
    {
      "constant": false,
      "inputs": [
        {
          "name": "minimumBalanceInWei",
          "type": "uint256"
        }
      ],
      "name": "setMinBalance",
      "outputs": [],
      "payable": false,
      "stateMutability": "nonpayable",
      "type": "function"
    },
    {
      "constant": true,
      "inputs": [
        {
          "name": "_owner",
          "type": "address"
        },
        {
          "name": "_spender",
          "type": "address"
        }
      ],
      "name": "allowance",
      "outputs": [
        {
          "name": "remaining",
          "type": "uint256"
        }
      ],
      "payable": false,
      "stateMutability": "view",
      "type": "function"
    },
    {
      "constant": false,
      "inputs": [],
      "name": "owned",
      "outputs": [],
      "payable": false,
      "stateMutability": "nonpayable",
      "type": "function"
    },
    {
      "constant": false,
      "inputs": [],
      "name": "unhaltDirectTrade",
      "outputs": [],
      "payable": false,
      "stateMutability": "nonpayable",
      "type": "function"
    },
    {
      "constant": true,
      "inputs": [],
      "name": "gasReserve",
      "outputs": [
        {
          "name": "",
          "type": "uint256"
        }
      ],
      "payable": false,
      "stateMutability": "view",
      "type": "function"
    },
    {
      "constant": false,
      "inputs": [
        {
          "name": "newOwner",
          "type": "address"
        }
      ],
      "name": "transferOwnership",
      "outputs": [],
      "payable": false,
      "stateMutability": "nonpayable",
      "type": "function"
    },
    {
      "constant": false,
      "inputs": [
        {
          "name": "amount",
          "type": "uint256"
        }
      ],
      "name": "sellKWHAgainstEther",
      "outputs": [
        {
          "name": "revenue",
          "type": "uint256"
        }
      ],
      "payable": false,
      "stateMutability": "nonpayable",
      "type": "function"
    },
    {
      "inputs": [],
      "payable": false,
      "stateMutability": "nonpayable",
      "type": "constructor"
    },
    {
      "payable": true,
      "stateMutability": "payable",
      "type": "fallback"
    },
    {
      "anonymous": false,
      "inputs": [
        {
          "indexed": true,
          "name": "_from",
          "type": "address"
        },
        {
          "indexed": true,
          "name": "_to",
          "type": "address"
        },
        {
          "indexed": false,
          "name": "_value",
          "type": "uint256"
        }
      ],
      "name": "Transfer",
      "type": "event"
    },
    {
      "anonymous": false,
      "inputs": [
        {
          "indexed": true,
          "name": "_owner",
          "type": "address"
        },
        {
          "indexed": true,
          "name": "_spender",
          "type": "address"
        },
        {
          "indexed": false,
          "name": "_value",
          "type": "uint256"
        }
      ],
      "name": "Approval",
      "type": "event"
    }
  ],
  "bytecode": "0x60606040526040805190810160405280600381526020017f4b574800000000000000000000000000000000000000000000000000000000008152506004908051906020019062000051929190620001ce565b506040805190810160405280600881526020017f4b5748546f6b656e000000000000000000000000000000000000000000000000815250600590805190602001906200009f929190620001ce565b5030600660006101000a81548173ffffffffffffffffffffffffffffffffffffffff021916908373ffffffffffffffffffffffffffffffffffffffff1602179055506012600660146101000a81548160ff021916908360ff1602179055506611c37937e080006008556611c37937e08000600955660aa87bee538000600a55600a600b55670de0b6b3a7640000600c5566470de4df820000600d556000600e60006101000a81548160ff02191690831515021790555034156200016157600080fd5b600660149054906101000a900460ff1660ff16600a0a6289544002600781905550600754600260003373ffffffffffffffffffffffffffffffffffffffff1673ffffffffffffffffffffffffffffffffffffffff168152602001908152602001600020819055506200027d565b828054600181600116156101000203166002900490600052602060002090601f016020900481019282601f106200021157805160ff191683800117855562000242565b8280016001018555821562000242579182015b828111156200024157825182559160200191906001019062000224565b5b50905062000251919062000255565b5090565b6200027a91905b80821115620002765760008160009055506001016200025c565b5090565b90565b612146806200028d6000396000f300606060405260043610610180576000357c0100000000000000000000000000000000000000000000000000000000900463ffffffff168063015129a1146101fd57806304950f451461022657806306fdde031461024f578063095ea7b3146102dd5780630b6ebf86146103375780630d5260e71461038c57806318160ddd146103af57806323b872dd146103d8578063313ce5671461045157806341713a3714610480578063418bc76c146104ad57806347f1d8d7146104d65780634b6a3334146104ff5780635639bb3c1461052b5780635c5557e7146105545780635ff456cb146105775780636a5b0151146105a357806370a08231146105c657806385cfdec71461061357806389224227146106315780638da5cb5b1461064657806395d89b411461069b578063a9059cbb14610729578063c91d956c14610783578063dd62ed3e146107a6578063df32754b14610812578063ea43b79f14610827578063eea7570e1461083c578063f2fde38b14610865578063fd626a861461089e575b6000809054906101000a900473ffffffffffffffffffffffffffffffffffffffff1673ffffffffffffffffffffffffffffffffffffffff163373ffffffffffffffffffffffffffffffffffffffff161415156101fb57600e60009054906101000a900460ff1615156101f157600080fd5b6101f96108d5565b505b005b341561020857600080fd5b610210610ad5565b6040518082815260200191505060405180910390f35b341561023157600080fd5b610239610adb565b6040518082815260200191505060405180910390f35b341561025a57600080fd5b610262610ae1565b6040518080602001828103825283818151815260200191508051906020019080838360005b838110156102a2578082015181840152602081019050610287565b50505050905090810190601f1680156102cf5780820380516001836020036101000a031916815260200191505b509250505060405180910390f35b34156102e857600080fd5b61031d600480803573ffffffffffffffffffffffffffffffffffffffff16906020019091908035906020019091905050610b7f565b604051808215151515815260200191505060405180910390f35b341561034257600080fd5b61034a610c71565b604051808273ffffffffffffffffffffffffffffffffffffffff1673ffffffffffffffffffffffffffffffffffffffff16815260200191505060405180910390f35b341561039757600080fd5b6103ad6004808035906020019091905050610c97565b005b34156103ba57600080fd5b6103c2610cfc565b6040518082815260200191505060405180910390f35b34156103e357600080fd5b610437600480803573ffffffffffffffffffffffffffffffffffffffff1690602001909190803573ffffffffffffffffffffffffffffffffffffffff16906020019091908035906020019091905050610d02565b604051808215151515815260200191505060405180910390f35b341561045c57600080fd5b610464610ffd565b604051808260ff1660ff16815260200191505060405180910390f35b341561048b57600080fd5b610493611010565b604051808215151515815260200191505060405180910390f35b34156104b857600080fd5b6104c0611023565b6040518082815260200191505060405180910390f35b34156104e157600080fd5b6104e9611029565b6040518082815260200191505060405180910390f35b341561050a57600080fd5b610529600480803590602001909190803590602001909190505061102f565b005b341561053657600080fd5b61053e61109c565b6040518082815260200191505060405180910390f35b341561055f57600080fd5b61057560048080359060200190919050506110a2565b005b341561058257600080fd5b6105a16004808035906020019091908035906020019091905050611107565b005b34156105ae57600080fd5b6105c460048080359060200190919050506113ed565b005b34156105d157600080fd5b6105fd600480803573ffffffffffffffffffffffffffffffffffffffff16906020019091905050611452565b6040518082815260200191505060405180910390f35b61061b6108d5565b6040518082815260200191505060405180910390f35b341561063c57600080fd5b61064461149b565b005b341561065157600080fd5b610659611513565b604051808273ffffffffffffffffffffffffffffffffffffffff1673ffffffffffffffffffffffffffffffffffffffff16815260200191505060405180910390f35b34156106a657600080fd5b6106ae611538565b6040518080602001828103825283818151815260200191508051906020019080838360005b838110156106ee5780820151818401526020810190506106d3565b50505050905090810190601f16801561071b5780820380516001836020036101000a031916815260200191505b509250505060405180910390f35b341561073457600080fd5b610769600480803573ffffffffffffffffffffffffffffffffffffffff169060200190919080359060200190919050506115d6565b604051808215151515815260200191505060405180910390f35b341561078e57600080fd5b6107a46004808035906020019091905050611bd0565b005b34156107b157600080fd5b6107fc600480803573ffffffffffffffffffffffffffffffffffffffff1690602001909190803573ffffffffffffffffffffffffffffffffffffffff16906020019091905050611c35565b6040518082815260200191505060405180910390f35b341561081d57600080fd5b610825611cbc565b005b341561083257600080fd5b61083a611cfe565b005b341561084757600080fd5b61084f611d76565b6040518082815260200191505060405180910390f35b341561087057600080fd5b61089c600480803573ffffffffffffffffffffffffffffffffffffffff16906020019091905050611d7c565b005b34156108a957600080fd5b6108bf6004808035906020019091905050611e40565b6040518082815260200191505060405180910390f35b60008060085414806108e8575060085434105b1515156108f457600080fd5b6008543481151561090157fe5b04905080600260003073ffffffffffffffffffffffffffffffffffffffff1673ffffffffffffffffffffffffffffffffffffffff168152602001908152602001600020541015151561095257600080fd5b61099b600260003373ffffffffffffffffffffffffffffffffffffffff1673ffffffffffffffffffffffffffffffffffffffff16815260200190815260200160002054826120b1565b600260003373ffffffffffffffffffffffffffffffffffffffff1673ffffffffffffffffffffffffffffffffffffffff16815260200190815260200160002081905550610a27600260003073ffffffffffffffffffffffffffffffffffffffff1673ffffffffffffffffffffffffffffffffffffffff16815260200190815260200160002054826120cd565b600260003073ffffffffffffffffffffffffffffffffffffffff1673ffffffffffffffffffffffffffffffffffffffff168152602001908152602001600020819055503373ffffffffffffffffffffffffffffffffffffffff163073ffffffffffffffffffffffffffffffffffffffff167fddf252ad1be2c89b69c2b068fc378daa952ba7f163c4a11628f55a4df523b3ef836040518082815260200191505060405180910390a380905090565b60095481565b600b5481565b60058054600181600116156101000203166002900480601f016020809104026020016040519081016040528092919081815260200182805460018160011615610100020316600290048015610b775780601f10610b4c57610100808354040283529160200191610b77565b820191906000526020600020905b815481529060010190602001808311610b5a57829003601f168201915b505050505081565b600081600360003373ffffffffffffffffffffffffffffffffffffffff1673ffffffffffffffffffffffffffffffffffffffff16815260200190815260200160002060008573ffffffffffffffffffffffffffffffffffffffff1673ffffffffffffffffffffffffffffffffffffffff168152602001908152602001600020819055508273ffffffffffffffffffffffffffffffffffffffff163373ffffffffffffffffffffffffffffffffffffffff167f8c5be1e5ebec7d5bd14f71427d1e84f3dd0314c0f7b2291e5b200ac8c7c3b925846040518082815260200191505060405180910390a36001905092915050565b600660009054906101000a900473ffffffffffffffffffffffffffffffffffffffff1681565b6000809054906101000a900473ffffffffffffffffffffffffffffffffffffffff1673ffffffffffffffffffffffffffffffffffffffff163373ffffffffffffffffffffffffffffffffffffffff16141515610cf257600080fd5b80600c8190555050565b60075481565b600081600260008673ffffffffffffffffffffffffffffffffffffffff1673ffffffffffffffffffffffffffffffffffffffff1681526020019081526020016000205410158015610dcf575081600360008673ffffffffffffffffffffffffffffffffffffffff1673ffffffffffffffffffffffffffffffffffffffff16815260200190815260200160002060003373ffffffffffffffffffffffffffffffffffffffff1673ffffffffffffffffffffffffffffffffffffffff1681526020019081526020016000205410155b8015610e5a5750600260008473ffffffffffffffffffffffffffffffffffffffff1673ffffffffffffffffffffffffffffffffffffffff1681526020019081526020016000205482600260008673ffffffffffffffffffffffffffffffffffffffff1673ffffffffffffffffffffffffffffffffffffffff1681526020019081526020016000205401115b15610ff15781600260008673ffffffffffffffffffffffffffffffffffffffff1673ffffffffffffffffffffffffffffffffffffffff1681526020019081526020016000206000828254039250508190555081600260008573ffffffffffffffffffffffffffffffffffffffff1673ffffffffffffffffffffffffffffffffffffffff1681526020019081526020016000206000828254019250508190555081600360008673ffffffffffffffffffffffffffffffffffffffff1673ffffffffffffffffffffffffffffffffffffffff16815260200190815260200160002060003373ffffffffffffffffffffffffffffffffffffffff1673ffffffffffffffffffffffffffffffffffffffff168152602001908152602001600020600082825403925050819055508273ffffffffffffffffffffffffffffffffffffffff168473ffffffffffffffffffffffffffffffffffffffff167fddf252ad1be2c89b69c2b068fc378daa952ba7f163c4a11628f55a4df523b3ef846040518082815260200191505060405180910390a360019050610ff6565b600090505b9392505050565b600660149054906101000a900460ff1681565b600e60009054906101000a900460ff1681565b600a5481565b600d5481565b6000809054906101000a900473ffffffffffffffffffffffffffffffffffffffff1673ffffffffffffffffffffffffffffffffffffffff163373ffffffffffffffffffffffffffffffffffffffff1614151561108a57600080fd5b81600881905550806009819055505050565b60085481565b6000809054906101000a900473ffffffffffffffffffffffffffffffffffffffff1673ffffffffffffffffffffffffffffffffffffffff163373ffffffffffffffffffffffffffffffffffffffff161415156110fd57600080fd5b80600b8190555050565b60008060009054906101000a900473ffffffffffffffffffffffffffffffffffffffff1673ffffffffffffffffffffffffffffffffffffffff163373ffffffffffffffffffffffffffffffffffffffff1614151561116457600080fd5b61117683670de0b6b3a76400006120e9565b90503373ffffffffffffffffffffffffffffffffffffffff166108fc829081150290604051600060405180830381858888f1935050505015156111b857600080fd5b3373ffffffffffffffffffffffffffffffffffffffff163073ffffffffffffffffffffffffffffffffffffffff167fddf252ad1be2c89b69c2b068fc378daa952ba7f163c4a11628f55a4df523b3ef846040518082815260200191505060405180910390a381600260003073ffffffffffffffffffffffffffffffffffffffff1673ffffffffffffffffffffffffffffffffffffffff168152602001908152602001600020541015151561126b57600080fd5b6112b4600260003373ffffffffffffffffffffffffffffffffffffffff1673ffffffffffffffffffffffffffffffffffffffff16815260200190815260200160002054836120b1565b600260003373ffffffffffffffffffffffffffffffffffffffff1673ffffffffffffffffffffffffffffffffffffffff16815260200190815260200160002081905550611340600260003073ffffffffffffffffffffffffffffffffffffffff1673ffffffffffffffffffffffffffffffffffffffff16815260200190815260200160002054836120cd565b600260003073ffffffffffffffffffffffffffffffffffffffff1673ffffffffffffffffffffffffffffffffffffffff168152602001908152602001600020819055503373ffffffffffffffffffffffffffffffffffffffff163073ffffffffffffffffffffffffffffffffffffffff167fddf252ad1be2c89b69c2b068fc378daa952ba7f163c4a11628f55a4df523b3ef846040518082815260200191505060405180910390a3505050565b6000809054906101000a900473ffffffffffffffffffffffffffffffffffffffff1673ffffffffffffffffffffffffffffffffffffffff163373ffffffffffffffffffffffffffffffffffffffff1614151561144857600080fd5b80600a8190555050565b6000600260008373ffffffffffffffffffffffffffffffffffffffff1673ffffffffffffffffffffffffffffffffffffffff168152602001908152602001600020549050919050565b6000809054906101000a900473ffffffffffffffffffffffffffffffffffffffff1673ffffffffffffffffffffffffffffffffffffffff163373ffffffffffffffffffffffffffffffffffffffff161415156114f657600080fd5b6000600e60006101000a81548160ff021916908315150217905550565b6000809054906101000a900473ffffffffffffffffffffffffffffffffffffffff1681565b60048054600181600116156101000203166002900480601f0160208091040260200160405190810160405280929190818152602001828054600181600116156101000203166002900480156115ce5780601f106115a3576101008083540402835291602001916115ce565b820191906000526020600020905b8154815290600101906020018083116115b157829003601f168201915b505050505081565b6000600b54821115156115e857600080fd5b6000809054906101000a900473ffffffffffffffffffffffffffffffffffffffff1673ffffffffffffffffffffffffffffffffffffffff163373ffffffffffffffffffffffffffffffffffffffff16141580156116925750600660009054906101000a900473ffffffffffffffffffffffffffffffffffffffff1673ffffffffffffffffffffffffffffffffffffffff168373ffffffffffffffffffffffffffffffffffffffff16145b80156116aa5750600e60009054906101000a900460ff165b156116c2576116b882611e40565b5060019050611bca565b81600260003373ffffffffffffffffffffffffffffffffffffffff1673ffffffffffffffffffffffffffffffffffffffff16815260200190815260200160002054101580156117905750600260008473ffffffffffffffffffffffffffffffffffffffff1673ffffffffffffffffffffffffffffffffffffffff1681526020019081526020016000205482600260008673ffffffffffffffffffffffffffffffffffffffff1673ffffffffffffffffffffffffffffffffffffffff1681526020019081526020016000205401115b15611bc4576117de600260003373ffffffffffffffffffffffffffffffffffffffff1673ffffffffffffffffffffffffffffffffffffffff16815260200190815260200160002054836120cd565b600260003373ffffffffffffffffffffffffffffffffffffffff1673ffffffffffffffffffffffffffffffffffffffff16815260200190815260200160002081905550600d543373ffffffffffffffffffffffffffffffffffffffff1631101580156118635750600d548373ffffffffffffffffffffffffffffffffffffffff163110155b15611962576118b1600260008573ffffffffffffffffffffffffffffffffffffffff1673ffffffffffffffffffffffffffffffffffffffff16815260200190815260200160002054836120b1565b600260008573ffffffffffffffffffffffffffffffffffffffff1673ffffffffffffffffffffffffffffffffffffffff168152602001908152602001600020819055508273ffffffffffffffffffffffffffffffffffffffff163373ffffffffffffffffffffffffffffffffffffffff167fddf252ad1be2c89b69c2b068fc378daa952ba7f163c4a11628f55a4df523b3ef846040518082815260200191505060405180910390a360019050611bca565b6119ad600260003073ffffffffffffffffffffffffffffffffffffffff1673ffffffffffffffffffffffffffffffffffffffff16815260200190815260200160002054600b546120b1565b600260003073ffffffffffffffffffffffffffffffffffffffff1673ffffffffffffffffffffffffffffffffffffffff16815260200190815260200160002081905550611a44600260008573ffffffffffffffffffffffffffffffffffffffff1673ffffffffffffffffffffffffffffffffffffffff16815260200190815260200160002054611a3f84600b546120cd565b6120b1565b600260008573ffffffffffffffffffffffffffffffffffffffff1673ffffffffffffffffffffffffffffffffffffffff168152602001908152602001600020819055508273ffffffffffffffffffffffffffffffffffffffff163373ffffffffffffffffffffffffffffffffffffffff167fddf252ad1be2c89b69c2b068fc378daa952ba7f163c4a11628f55a4df523b3ef611ae285600b546120cd565b6040518082815260200191505060405180910390a3600d543373ffffffffffffffffffffffffffffffffffffffff16311015611b5b573373ffffffffffffffffffffffffffffffffffffffff166108fc600a549081150290604051600060405180830381858888f193505050501515611b5a57600080fd5b5b600d548373ffffffffffffffffffffffffffffffffffffffff16311015611bbf578273ffffffffffffffffffffffffffffffffffffffff166108fc600a549081150290604051600060405180830381858888f193505050501515611bbe57600080fd5b5b611bc9565b600080fd5b5b92915050565b6000809054906101000a900473ffffffffffffffffffffffffffffffffffffffff1673ffffffffffffffffffffffffffffffffffffffff163373ffffffffffffffffffffffffffffffffffffffff16141515611c2b57600080fd5b80600d8190555050565b6000600360008473ffffffffffffffffffffffffffffffffffffffff1673ffffffffffffffffffffffffffffffffffffffff16815260200190815260200160002060008373ffffffffffffffffffffffffffffffffffffffff1673ffffffffffffffffffffffffffffffffffffffff16815260200190815260200160002054905092915050565b336000806101000a81548173ffffffffffffffffffffffffffffffffffffffff021916908373ffffffffffffffffffffffffffffffffffffffff160217905550565b6000809054906101000a900473ffffffffffffffffffffffffffffffffffffffff1673ffffffffffffffffffffffffffffffffffffffff163373ffffffffffffffffffffffffffffffffffffffff16141515611d5957600080fd5b6001600e60006101000a81548160ff021916908315150217905550565b600c5481565b6000809054906101000a900473ffffffffffffffffffffffffffffffffffffffff1673ffffffffffffffffffffffffffffffffffffffff163373ffffffffffffffffffffffffffffffffffffffff16141515611dd757600080fd5b60008173ffffffffffffffffffffffffffffffffffffffff1614151515611dfd57600080fd5b806000806101000a81548173ffffffffffffffffffffffffffffffffffffffff021916908373ffffffffffffffffffffffffffffffffffffffff16021790555050565b6000806009541480611e535750600b5482105b151515611e5f57600080fd5b81600260003373ffffffffffffffffffffffffffffffffffffffff1673ffffffffffffffffffffffffffffffffffffffff1681526020019081526020016000205410151515611ead57600080fd5b611eb9826009546120e9565b9050600c54611edf3073ffffffffffffffffffffffffffffffffffffffff1631836120cd565b10151515611eec57600080fd5b3373ffffffffffffffffffffffffffffffffffffffff166108fc829081150290604051600060405180830381858888f193505050501515611f2c57600080fd5b611f75600260003073ffffffffffffffffffffffffffffffffffffffff1673ffffffffffffffffffffffffffffffffffffffff16815260200190815260200160002054836120b1565b600260003073ffffffffffffffffffffffffffffffffffffffff1673ffffffffffffffffffffffffffffffffffffffff16815260200190815260200160002081905550612001600260003373ffffffffffffffffffffffffffffffffffffffff1673ffffffffffffffffffffffffffffffffffffffff16815260200190815260200160002054836120cd565b600260003373ffffffffffffffffffffffffffffffffffffffff1673ffffffffffffffffffffffffffffffffffffffff168152602001908152602001600020819055503373ffffffffffffffffffffffffffffffffffffffff163073ffffffffffffffffffffffffffffffffffffffff167fddf252ad1be2c89b69c2b068fc378daa952ba7f163c4a11628f55a4df523b3ef836040518082815260200191505060405180910390a3809050919050565b600081830190508281101515156120c757600080fd5b92915050565b60008282111515156120de57600080fd5b818303905092915050565b600081830290506000831480612109575081838281151561210657fe5b04145b151561211457600080fd5b929150505600a165627a7a723058209f5342e7c7aaba05f1f0edd6ff8b167cbca5551bc944ffaea966cbc30d846adf0029",
  "source": "pragma solidity ^0.4.17;\n\n\n// ----------------------------------------------------------------------------\n// 'KWHToken' contract\n//\n// Symbol      : KWH\n// Name        : KWHToken\n// Total supply: 900,000.000000000000000000\n// Decimals    : 18\n//\n// The MIT Licence.\n// ----------------------------------------------------------------------------\n\nimport './SafeMath.sol';\nimport './Owned.sol';\nimport './StandardToken.sol';\n\n\ncontract KWHToken is SafeMath, Owned, StandardToken {\n\n    string public symbol = \"KWH\";\n    string public name = \"KWHToken\";\n\n    address public KWHTokenAddress = this;\n    uint8 public decimals = 18;\n    uint256 public totalSupply;\n    uint256 public buyPriceEth = 5 finney;\n    uint256 public sellPriceEth = 5 finney;\n    uint256 public gasForKWH = 3 finney;\n    uint256 public KWHForGas = 10;\n    uint256 public gasReserve = 1 ether;\n    uint256 public minBalanceForAccounts = 20 finney;\n    bool public directTradeAllowed = false;\n\n\n    function KWHToken() {\n        totalSupply = 9000000 * 10**uint(decimals);\n        balances[msg.sender] = totalSupply;\n    }\n\n    function setEtherPrices(uint256 newBuyPriceEth, uint256 newSellPriceEth) onlyOwner {\n        buyPriceEth = newBuyPriceEth;\n        sellPriceEth = newSellPriceEth;\n    }\n    function setGasForKWH(uint newGasAmountInWei) onlyOwner {\n        gasForKWH = newGasAmountInWei;\n    }\n    function setKWHForGas(uint newDCNAmount) onlyOwner {\n        KWHForGas = newDCNAmount;\n    }\n    function setGasReserve(uint newGasReserveInWei) onlyOwner {\n        gasReserve = newGasReserveInWei;\n    }\n    function setMinBalance(uint minimumBalanceInWei) onlyOwner {\n        minBalanceForAccounts = minimumBalanceInWei;\n    }\n\n\n// Halts or unhalts direct trades without the sell and buy functions below\n    function haltDirectTrade() onlyOwner {\n        directTradeAllowed = false;\n    }\n    function unhaltDirectTrade() onlyOwner {\n        directTradeAllowed = true;\n    }\n\n    function transfer(address _to, uint256 _value) returns (bool success) {\n        require(_value > KWHForGas);\n        if (msg.sender != owner && _to == KWHTokenAddress && directTradeAllowed) {\n            sellKWHAgainstEther(_value);\n            return true;\n        }\n\n        if (balances[msg.sender] >= _value && balances[_to] + _value > balances[_to]) {\n            balances[msg.sender] = safeSub(balances[msg.sender], _value);\n\n            if (msg.sender.balance >= minBalanceForAccounts && _to.balance >= minBalanceForAccounts) {\n                balances[_to] = safeAdd(balances[_to], _value);\n                Transfer(msg.sender, _to, _value);\n                return true;\n            } else {\n                balances[this] = safeAdd(balances[this], KWHForGas);\n                balances[_to] = safeAdd(balances[_to], safeSub(_value, KWHForGas));\n                Transfer(msg.sender, _to, safeSub(_value, KWHForGas));\n\n                if(msg.sender.balance < minBalanceForAccounts) {\n                    require(msg.sender.send(gasForKWH));\n                  }\n                if(_to.balance < minBalanceForAccounts) {\n                    require(_to.send(gasForKWH));\n                }\n            }\n        } else { throw; }\n    }\n\n// User buys KWHs and pays in Ether\n    function buyKWHAgainstEther() payable returns (uint amount) {\n        require(!(buyPriceEth == 0 || msg.value < buyPriceEth));\n        amount = msg.value / buyPriceEth;\n        require(!(balances[this] < amount));\n        balances[msg.sender] = safeAdd(balances[msg.sender], amount);\n        balances[this] = safeSub(balances[this], amount);\n        Transfer(this, msg.sender, amount);\n        return amount;\n    }\n\n\n// User sells KWHs and gets Ether\n    function sellKWHAgainstEther(uint256 amount) returns (uint revenue) {\n        require(!(sellPriceEth == 0 || amount < KWHForGas));\n        require(!(balances[msg.sender] < amount));\n        revenue = safeMul(amount, sellPriceEth);\n        require(!(safeSub(this.balance, revenue) < gasReserve));\n        if (!msg.sender.send(revenue)) {\n            throw;\n        } else {\n            balances[this] = safeAdd(balances[this], amount);\n            balances[msg.sender] = safeSub(balances[msg.sender], amount);\n            Transfer(this, msg.sender, revenue);\n            return revenue;\n        }\n    }\n\n\n// Refunding owner\n    function refundToOwner (uint256 amountOfEth, uint256 kwh) onlyOwner {\n        uint256 eth = safeMul(amountOfEth, 1 ether);\n        if (!msg.sender.send(eth)) {\n            throw;\n        } else {\n            Transfer(this, msg.sender, kwh);\n        }\n        require(!(balances[this] < kwh));\n        balances[msg.sender] = safeAdd(balances[msg.sender], kwh);\n        balances[this] = safeSub(balances[this], kwh);\n        Transfer(this, msg.sender, kwh);\n    }\n\n\n    function() payable {\n        if (msg.sender != owner) {\n            require(directTradeAllowed);\n            buyKWHAgainstEther();\n        }\n    }\n\n}\n",
  "sourcePath": "/home/masl/Desktop/kWhToken/contracts/KWHToken.sol",
  "compiler": {
    "name": "solc",
    "version": "0.4.18+commit.9cf6e910.Emscripten.clang"
  },
  "schemaVersion": "1.0.1",
  "updatedAt": "2018-01-06T18:15:05.107Z"
}