{
  "contractName": "Owned",
  "abi": [
    {
      "constant": true,
      "inputs": [],
      "name": "owner",
      "outputs": [
        {
          "name": "",
          "type": "address"
        }
      ],
      "payable": false,
      "stateMutability": "view",
      "type": "function"
    },
    {
      "constant": false,
      "inputs": [],
      "name": "owned",
      "outputs": [],
      "payable": false,
      "stateMutability": "nonpayable",
      "type": "function"
    },
    {
      "constant": false,
      "inputs": [
        {
          "name": "newOwner",
          "type": "address"
        }
      ],
      "name": "transferOwnership",
      "outputs": [],
      "payable": false,
      "stateMutability": "nonpayable",
      "type": "function"
    }
  ],
  "bytecode": "0x6060604052341561000f57600080fd5b6102568061001e6000396000f300606060405260043610610057576000357c0100000000000000000000000000000000000000000000000000000000900463ffffffff1680638da5cb5b1461005c578063df32754b146100b1578063f2fde38b146100c6575b600080fd5b341561006757600080fd5b61006f6100ff565b604051808273ffffffffffffffffffffffffffffffffffffffff1673ffffffffffffffffffffffffffffffffffffffff16815260200191505060405180910390f35b34156100bc57600080fd5b6100c4610124565b005b34156100d157600080fd5b6100fd600480803573ffffffffffffffffffffffffffffffffffffffff16906020019091905050610166565b005b6000809054906101000a900473ffffffffffffffffffffffffffffffffffffffff1681565b336000806101000a81548173ffffffffffffffffffffffffffffffffffffffff021916908373ffffffffffffffffffffffffffffffffffffffff160217905550565b6000809054906101000a900473ffffffffffffffffffffffffffffffffffffffff1673ffffffffffffffffffffffffffffffffffffffff163373ffffffffffffffffffffffffffffffffffffffff161415156101c157600080fd5b60008173ffffffffffffffffffffffffffffffffffffffff16141515156101e757600080fd5b806000806101000a81548173ffffffffffffffffffffffffffffffffffffffff021916908373ffffffffffffffffffffffffffffffffffffffff160217905550505600a165627a7a723058201441cfdbe8b784aeeec672c8d7a43c28fdf9930ef8415e46d191ca5796a5b6f60029",
  "source": "pragma solidity ^0.4.17;\n\n\n// Contract Owned\n\ncontract Owned {\n\n    address public owner;\n\n    function owned() {\n\n        owner = msg.sender;\n\n    }\n\n    modifier onlyOwner {\n\n        require(msg.sender == owner);\n        _;\n\n    }\n\n    function transferOwnership(address newOwner) onlyOwner {\n\n        require(newOwner != 0x0);\n        owner = newOwner;\n\n    }\n\n}\n",
  "sourcePath": "/home/masl/Desktop/kWhToken/contracts/Owned.sol",
  "compiler": {
    "name": "solc",
    "version": "0.4.18+commit.9cf6e910.Emscripten.clang"
  },
  "schemaVersion": "1.0.1",
  "updatedAt": "2018-01-06T18:15:05.111Z"
}